:040000004EEF00F0CF
:100008005182E9CF45F0EACF46F0E1CF47F0E2CFA1
:1000180048F0D9CF49F0DACF4AF0F3CF4BF0F4CF1C
:100028004CF0F6CF4DF0F7CF4EF0F8CF4FF0F5CFBC
:1000380050F0F2AC22EF00F024EF00F034EF00F0C3
:10004800A3A429EF00F02BEF00F034EF00F0A4A4F4
:1000580030EF00F032EF00F034EF00F0F6EC01F092
:1000680050C0F5FF4FC0F8FF4EC0F7FF4DC0F6FF78
:100078004CC0F4FF4BC0F3FF4AC0DAFF49C0D9FFB8
:1000880048C0E2FF47C0E1FF46C0EAFF45C0E9FFBC
:100098005192110048EF0EF004012205D8A457EF41
:1000A80000F059EF00F073EF00F020511F0B00092A
:1000B800D8A461EF00F063EF00F073EF00F00C8E4E
:1000C800030E2119D8A46BEF00F06DEF00F071EF6B
:1000D80000F0010E296E73EF00F0000E296E225118
:1000E800D8A479EF00F07BEF00F0F5EF01F0205194
:1000F8001F0B020AD8A483EF00F085EF00F0F5EF9C
:1001080001F024510F0B0009D8B48DEF00F08FEFE8
:1001180000F0F5EF01F024510F0B3A6E020E3A6031
:1001280098EF00F09AEF00F0F5EF01F0200E2C1890
:10013800D8A4A1EF00F0A3EF00F0F5EF01F00C8ECA
:1001480024BFA9EF00F0ABEF00F0C8EF00F0245196
:100158000F0B3A6E3A50020D130EF324D96E000EAF
:10016800F420DA6EDECF3FF0DDCF40F024510F0BE4
:100178003A6E3B6A170E3A24D96E000E3B20DA6EAF
:10018800DF503E6EE3EF00F024510F0B3A6E3A5009
:10019800020D0F0EF324D96E000EF420DA6EDECFB6
:1001A8003FF0DDCF40F024510F0B3A6E3B6A190E39
:1001B8003A24D96E000E3B20DA6EDF503E6E3EB018
:1001C800E8EF00F0EAEF00F0F2EF00F0FB0E3F146A
:1001D8003F6EFF0E4014406EF7EF00F0040E3F1024
:1001E8003F6E4050406E24BFFCEF00F0FEEF00F081
:1001F8000FEF01F024510F0B3A6E3A50020D130E17
:10020800F324D96E000EF420DA6E3FC0DEFF40C042
:10021800DDFF1EEF01F024510F0B3A6E3A50020D2C
:100228000F0EF324D96E000EF420DA6E3FC0DEFF05
:1002380040C0DDFF030E2119D8A425EF01F027EFF8
:1002480001F05FEF01F03FC0D9FF40C0DAFFDFAE39
:1002580030EF01F032EF01F051EF01F024BF37EF3A
:1002680001F039EF01F046EF01F024510F0B3A6E1F
:100278003B6A170E3A24D96E000E3B20DA6EDF82F5
:1002880051EF01F024510F0B3A6E3B6A190E3A24D4
:10029800D96E000E3B20DA6EDF823FC0D9FF40C026
:1002A800DAFF000EDB843FC0D9FF40C0DAFF000E42
:1002B800DB8EF5EF01F0040E3F183F6E4050406EA4
:1002C8003FC0D9FF40C0DAFFDFAE6DEF01F06FEF3E
:1002D80001F08BEF01F03FC0D9FF40C0DAFF7F0E7D
:1002E800DF163FC0D9FF40C0DAFF000EDB8C000EDE
:1002F800336E050E326E3FC034F040C035F0000E4C
:10030800376E020E366EC1EC0CF091EF01F03FC073
:10031800D9FF40C0DAFF000EDB8C040E3F183F6E99
:100328004050406E3EB29BEF01F09DEF01F0A8EF08
:1003380001F03FC0D9FF40C0DAFFDFAEA6EF01F001
:10034800A8EF01F0DEEF01F0040124BFAEEF01F0E9
:10035800B0EF01F0BDEF01F024510F0B3A6E3B6A8C
:10036800170E3A24D96E000E3B20DA6EDF92C8EFE2
:1003780001F024510F0B3A6E3B6A190E3A24D96EDC
:10038800000E3B20DA6EDF923FC0D9FF40C0DAFF93
:100398003B0EDF16000E336E050E326E3FC034F092
:1003A80040C035F0000E376E020E366EC1EC0CF010
:1003B800E4EF01F03FC0D9FF40C0DAFF3B0EDF1683
:1003C800040124510F0B3A6E3B6A6A0E3A243C6EC4
:1003D8000F0E3B203D6E3CC0D9FF3DC0DAFFFE0E3C
:1003E800DF1612002C04D8A4FCEF01F0FEEF01F098
:1003F8000BEF02F060BA03EF02F005EF02F00BEF2B
:1004080002F0000E656E64806488020E2C6E65A48E
:1004180010EF02F012EF02F01CEF02F064A417EFE5
:1004280002F019EF02F01CEF02F06594F9EC0DF000
:1004380060A221EF02F023EF02F026EF02F0A4946D
:1004480007EF03F065A02BEF02F02DEF02F03AEF73
:1004580002F064A032EF02F034EF02F03AEF02F05B
:10046800F9EC05F0A384040E2C6E659065A83FEFA7
:1004780002F041EF02F04AEF02F064A846EF02F002
:1004880048EF02F04AEF02F032EC0EF065AC4FEFA5
:1004980002F051EF02F07CEF02F064AC56EF02F08C
:1004A80058EF02F066EF02F0000E336E730E326EF4
:1004B800000E346E000E356E000E376E010E366E6D
:1004C800C1EC0CF0659C18EC0EF02550D8B46FEF19
:1004D80002F071EF02F072EF02F025062550D8A461
:1004E80078EF02F07AEF02F07CEF02F079EC0AF094
:1004F80065AA81EF02F083EF02F08CEF02F064AAA4
:1005080088EF02F08AEF02F08CEF02F03BEC0DF07E
:1005180065A291EF02F093EF02F0A9EF02F064A256
:1005280098EF02F09AEF02F0A9EF02F07F0E336E17
:100538003268000E346E000E356E000E376E010EF6
:10054800366EC1EC0CF0000E676E040E2C60AFEF37
:1005580002F0B1EF02F0B4EF02F0A49407EF03F059
:1005680064A6B9EF02F0BBEF02F006EF03F0000E4D
:10057800446E65A6C2EF02F0C4EF02F006EF03F086
:1005880061CF2DF02D30E832E8320F0B276E6596DB
:100598002DB4D1EF02F0D3EF02F0DCEF02F0170E2A
:1005A8002724D96EDA6A000EDA22DF70E3EF02F050
:1005B800190E2724D96EDA6A000EDA22DF70275066
:1005C800D8A4E9EF02F0EBEF02F0EFEF02F0C8EC8D
:1005D8000BF0FDEF02F0000E336E720E326E2D0E30
:1005E800346E000E356E000E376E000E366EC1EC9E
:1005F8000CF0442A030E446404EF03F006EF03F002
:10060800BDEF02F0A4941200800E04012019D8A4B2
:1006180010EF03F012EF03F0DAEF03F0C00E0C6EE8
:10062800C1EF03F0E90E096E7F0E0A6E000E0E6E22
:10063800120E0D6EDAEF03F02251D8A426EF03F064
:1006480028EF03F066EF03F02251020DB10EF324F8
:10065800F66E7E0EF420F76E0900F5CF09F00A0059
:10066800F5CF0AF0020E0924306E000E0A20316E12
:1006780030C0F6FF31C0F7FFF86A070EF76403D001
:100688000800F55005D0F6CFE9FFF7CFEAFFEF50A5
:100698000D6E030E0924306E000E0A20316E30C034
:1006A800F6FF31C0F7FFF86A070EF76403D00800B9
:1006B800F55005D0F6CFE9FFF7CFEAFFEF500E6E01
:1006C800DAEF03F0000E0C6EDAEF03F0030E22618E
:1006D80070EF03F072EF03F096EF03F02251020D72
:1006E800AB0EF324F66E7E0EF420F76E0900F5CFFC
:1006F80009F00A00F5CF0AF009C0F6FF0AC0F7FFB3
:10070800F86A070EF76403D00800F55005D0F6CF55
:10071800E9FFF7CFEAFFEF50306E30500D6E0E6AEA
:10072800DAEF03F0EE0E2219D8A49DEF03F09FEF45
:1007380003F0B9EF03F0D70E096E7F0E0A6E09C0F9
:10074800F6FF0AC0F7FFF86A070EF76403D008003F
:10075800F55005D0F6CFE9FFF7CFEAFFEF50306E3E
:1007680030500D6E0E6ADAEF03F0000E0C6EDAEF01
:1007780003F0000E0C6EDAEF03F02351306E316A8D
:100788003150000AD8B4CBEF03F0BDEF03F030507E
:10079800010AD8B416EF03F0030AD8B420EF03F027
:1007A800010AD8B46AEF03F0BDEF03F0120060C08D
:1007B8006AF061C06BF0000164516511D8A4E7EFDD
:1007C80003F0E9EF03F0EBEF03F096EF04F06AC0F3
:1007D800D9FF6BC0DAFF62C0DFFF64516A25666F1C
:1007E80065516B21676FFF0E6625D96EFF0E672175
:1007F800DA6E62C0DFFF655107E1030E645DD8B0B1
:1008080008EF04F00AEF04F00CEF04F096EF04F0A0
:1008180020EE01F06A51D9266B51DA2262C0DFFF5F
:1008280020EE02F06A51D9266B51DA2262C0DFFF4E
:1008380064516A25666F65516B21676FFE0E6625E8
:10084800D96EFF0E6721DA6E62C0DFFF64516A2538
:10085800666F65516B21676FFD0E6625D96EFF0EB9
:100868006721DA6E62C0DFFF655107E1070E645D3C
:10087800D8B041EF04F043EF04F045EF04F096EFF1
:1008880004F020EE03F06A51D9266B51DA2262C0D7
:10089800DFFF64516A25666F65516B21676FFC0E37
:1008A8006625D96EFF0E6721DA6E62C0DFFF6551DB
:1008B80007E1090E645DD8B064EF04F066EF04F058
:1008C80068EF04F096EF04F06AC066F06BC067F05A
:1008D800661F671F664B672B030E6615686F696B8B
:1008E80068516A2769516B236851645F6951655B78
:1008F800FC0E6417FF0E65178DEF04F06AC0D9FF70
:100908006BC0DAFF62C0DFFF6407D8A065076A4BD7
:100918006B2B64516511D8A494EF04F096EF04F0A2
:1009280082EF04F0120030C03AF031C03BF034508E
:100938003510D8A4A2EF04F0A4EF04F0A6EF04F059
:1009480051EF05F03AC0D9FF3BC0DAFF32C0DFFFF4
:1009580034503A24366E35503B20376EFF0E36241D
:10096800D96EFF0E3720DA6E32C0DFFF355007E14F
:10097800030E345CD8B0C3EF04F0C5EF04F0C7EF42
:1009880004F051EF05F020EE01F03A50D9263B5023
:10099800DA2232C0DFFF20EE02F03A50D9263B506F
:1009A800DA2232C0DFFF34503A24366E35503B200D
:1009B800376EFE0E3624D96EFF0E3720DA6E32C03F
:1009C800DFFF34503A24366E35503B20376EFD0E2B
:1009D8003624D96EFF0E3720DA6E32C0DFFF35506D
:1009E80007E1070E345CD8B0FCEF04F0FEEF04F02A
:1009F80000EF05F051EF05F020EE03F03A50D9264C
:100A08003B50DA2232C0DFFF34503A24366E35507C
:100A18003B20376EFC0E3624D96EFF0E3720DA6E77
:100A280032C0DFFF355007E1090E345CD8B01FEF44
:100A380005F021EF05F023EF05F051EF05F03AC07E
:100A480036F03BC037F0361E371E364A372A030EBB
:100A58003614386E396A38503A2639503B223850A5
:100A6800345E3950355AFC0E3416FF0E351648EFF1
:100A780005F03AC0D9FF3BC0DAFF32C0DFFF3406C9
:100A8800D8A035063A4A3B2A34503510D8A44FEF3F
:100A980005F051EF05F03DEF05F01200A394000EAC
:100AA800676E000E656E000E6A6E6B0E0001606F59
:100AB8000F0E616F000E636F000E626F000E656FA0
:100AC800010E646FDBEC03F0160E626E9F0E666E0D
:100AD8007B0E646E000E00016C6F6C51040D000EED
:100AE800F324D96E040EF420DA6EDE6ADE6ADE6A5A
:100AF800DD6A6C2B070E6C6584EF05F086EF05F058
:100B080071EF05F0608C000E636E6098609C6596CE
:100B1800000E0C6E000E046E000E066E000E056EC2
:100B280065B699EF05F09BEF05F08BEF05F0010E28
:100B3800236E010E226E000E216E000E206E000E36
:100B4800286E000E00016C6F6C51020D0F0EF3241D
:100B5800D96E000EF420DA6E000EDE6E000EDD6E29
:100B68006C51020D130EF324D96E000EF420DA6EC8
:100B7800000EDE6E000EDD6E190E6C25D96EDA6A77
:100B8800000EDA22000EDF6E170E6C25D96EDA6AB7
:100B9800000EDA22000EDF6E6C2B010E6C65D7EFAB
:100BA80005F0D9EF05F0A8EF05F0080E0F6E040E5A
:100BB800106E160E6A6E040E0401036F200E026F8B
:100BC800080E016F040E006F008F000E2F6E000ECE
:100BD80000016D6F000E6E6F000E6F6F000E706F6C
:100BE800000E1F6E000E2C6E1200A394000E676E8E
:100BF800000E656E000E6A6E6B0E306E0F0E316E53
:100C0800000E336E000E326E000E356E010E346E1D
:100C180097EC04F0160E626E9F0E666E7B0E646E85
:100C2800000E3C6E3C50040D000EF324D96E040EE9
:100C3800F420DA6EDE6ADE6ADE6ADD6A3C2A070EB6
:100C48003C6429EF06F02BEF06F016EF06F0608CF7
:100C5800000E636E6098609C6596000E0C6E000E28
:100C6800046E000E066E000E056E65B63EEF06F0C9
:100C780040EF06F030EF06F0010E236E010E226EF3
:100C8800000E216E000E206E000E286E000E3C6EC7
:100C98003C50020D0F0EF324D96E000EF420DA6ECC
:100CA800000EDE6E000EDD6E3C50020D130EF324B6
:100CB800D96E000EF420DA6E000EDE6E000EDD6EC8
:100CC800190E3C24D96EDA6A000EDA22000EDF6EA5
:100CD800170E3C24D96EDA6A000EDA22000EDF6E97
:100CE8003C2A010E3C647BEF06F07DEF06F04CEFEA
:100CF80006F0080E0F6E040E106E160E6A6E040EC5
:100D08000401036F200E026F080E016F040E006FBE
:100D1800008F000E2F6E000E00016D6F000E6E6FBB
:100D2800000E6F6F000E706F000E1F6E000E2C6E9F
:100D3800120020EE01F01D50D9261E50DA22DF5095
:100D4800316E3150055C000E0658D8B0AEEF06F093
:100D5800B0EF06F0B2EF06F005C031F03150055E95
:100D6800000E065A000E306EC9EF06F0280E302429
:100D7800D96EDA6A040EDA2201C0E1FF02C0E2FF8E
:100D8800DFCFE7FF014A022A302A3150305CD8A071
:100D9800D0EF06F0D2EF06F0BAEF06F005500610D5
:100DA800D8B4D9EF06F0DBEF06F014EF07F020EE29
:100DB80001F01B50D9261C50DA22080EDF6E20EEF7
:100DC80002F01B50D9261C50DA22280EDE6E040EC3
:100DD800DD6E1DC0D9FF1EC0DAFFDFBCF6EF06F0DE
:100DE800F8EF06F006EF07F01BC0D9FF1CC0DAFFCA
:100DF800480EDF6E1BC0D9FF1CC0DAFF000EDB8E69
:100E08003DEF07F01BC0D9FF1CC0DAFF080EDF6EEC
:100E18001BC0D9FF1CC0DAFF000EDB8E3DEF07F0C8
:100E280020EE01F01B50D9261C50DA22080EDF6E86
:100E380020EE02F01B50D9261C50DA22200EDE6E5E
:100E4800040EDD6E1BC0D9FF1CC0DAFF040EDF6E76
:100E58001BC0D9FF1CC0DAFF000EDB8E049E245095
:100E6800D8A439EF07F03BEF07F03DEF07F079EC36
:100E78000AF0120060980CBE44EF07F046EF07F046
:100E88008BEF07F004AE4BEF07F04DEF07F05FEF85
:100E980007F0020E2A6E2050D8A455EF07F057EF3E
:100EA80007F059EF07F024EC0CF0000E226E000E4C
:100EB800236EDDEF07F020EE01F01B50D9261C5001
:100EC800DA22080EDF6E20EE02F01B50D9261C50E5
:100ED800DA22200EDE6E040EDD6E1BC0D9FF1CC0A8
:100EE800DAFF0C0EDF6E1BC0D9FF1CC0DAFF000E44
:100EF800DB8E0FC0D9FF10C0DAFF040EDF6E0FC003
:100F0800D9FF10C0DAFF000EDB8EDDEF07F0040119
:100F180020AF91EF07F093EF07F0AFEF07F0010E66
:100F28002A6E2150D8A49BEF07F09DEF07F09FEFA2
:100F380007F024EC0CF0000E226E000E236E2450F5
:100F4800D8A4A9EF07F0ABEF07F0DDEF07F079ECD5
:100F58000AF0DDEF07F0020E2A6E20EE01F01B50BA
:100F6800D9261C50DA22080EDF6E20EE02F01B5044
:100F7800D9261C50DA22200EDE6E040EDD6E1BC050
:100F8800D9FF1CC0DAFF040EDF6E1BC0D9FF1CC0DE
:100F9800DAFF000EDB8E000E226E000E236E245048
:100FA800D8A4D9EF07F0DBEF07F0DDEF07F0ABEFE0
:100FB80007F0120004012039E832030B0009D8B405
:100FC800E8EF07F0EAEF07F032EF08F06BEF08F010
:100FD8000C8E080E2C6E6BEF08F008EC03F06BEF2C
:100FE80008F0F1EC0AF06BEF08F02F0E096E000E16
:100FF8000A6E0C80010E0D6E0C8E6BEF08F0F8EC8B
:1010080009F06BEF08F050EC00F06BEF08F02E0ED3
:101018002425096E0A6A000E0A220C80010E0D6E44
:101028000C8E6BEF08F00C8E2E0E2425D96EDA6A22
:10103800000EDA2222C4DFFF6BEF08F0000E336ED9
:10104800020E326E000E346E000E356E000E376ED4
:10105800000E366EC1EC0CF06BEF08F02151416EBA
:10106800426A4250000AD8B43CEF08F06BEF08F02F
:101078004150000AD8B403EF08F0010AD8B407EFCA
:1010880008F0020AD8B407EF08F0060AD8B4ECEF63
:1010980007F0030AD8B4F1EF07F0010AD8B422EF39
:1010A80008F00F0AD8B4F9EF07F0010AD8B4F5EF41
:1010B80007F0030AD8B40BEF08F0010AD8B417EF09
:1010C80008F0070AD8B46BEF08F06BEF08F01200CD
:1010D800080E306E0E5007E1080E0D5CD8B077EFA1
:1010E80008F079EF08F091EF08F00DC030F02B50C0
:1010F800D8A481EF08F083EF08F087EF08F0010E1D
:101108002B6E91EF08F02B04D8A48DEF08F08FEF29
:1011180008F091EF08F0020E2B6E30500D5E000EB5
:101128000E5A20EE01F00F50D9261050DA2230C0A6
:10113800DFFF280E0001716F040E726F0CB0A7EF6D
:1011480008F0A9EF08F0EBEF08F0C6EF08F009C0C7
:10115800F6FF0AC0F7FFF86A71C0D9FF72C0DAFF5C
:10116800070EF76403D00800F55005D0F6CFE9FF65
:10117800F7CFEAFFEF50DF6E094A0A2A0001714BE8
:10118800722B30063050D8A4CCEF08F0CEEF08F020
:10119800ABEF08F0F3EF08F009C0F6FF0AC0F7FF5D
:1011A800F86A71C0D9FF72C0DAFF070EF76403D07E
:1011B8000800F55005D0F6CFE9FFF7CFEAFFEF506A
:1011C800DF6E094A0A2A0001714B722B3006305033
:1011D800D8A4F1EF08F0F3EF08F0D0EF08F0120010
:1011E800C00E04012019D8A4FCEF08F0FEEF08F0A7
:1011F80036EF09F0EE0E2119D8A405EF09F007EF34
:1012080009F075EF09F0040E24192511D8A40FEF81
:1012180009F011EF09F075EF09F0750EF66E7F0E03
:10122800F76E0900F5CF30F00A00F5CF31F03050F5
:10123800265D31502759D8B024EF09F026EF09F080
:101248002AEF09F026C430F027C431F0750E096E74
:101258007F0E0A6E30C00DF031C00EF0C00E0C6E5D
:1012680075EF09F0C10E2019D8A43DEF09F03FEF42
:1012780009F075EF09F0EE0E2119D8A446EF09F030
:1012880048EF09F075EF09F0050E24192511D8A4C7
:1012980050EF09F052EF09F075EF09F0B30EF66E52
:1012A8007E0EF76E0900F5CF30F00A00F5CF31F069
:1012B8003050265D31502759D8B065EF09F067EFF7
:1012C80009F06BEF09F026C430F027C431F0B30EF3
:1012D800096E7E0E0A6E30C00DF031C00EF0C00EE1
:1012E8000C6E12000FC0D9FF10C0DAFF000EDFBC71
:1012F800010E316E040E0F180F6E1050106E080E8E
:101308002C18D8A48AEF09F08CEF09F09EEF09F0A9
:10131800040122517F0B636E6350D8B496EF09F035
:1013280098EF09F09CEF09F0100E2C6E9EEF09F073
:10133800040E2C6E2A04D8A4A4EF09F0A6EF09F035
:10134800EDEF09F020EE02F00F50D9261050DA2206
:10135800280EDE6E040EDD6E6CEC08F0020E2B1803
:10136800D8A4B9EF09F0BBEF09F0C9EF09F00FC035
:10137800D9FF10C0DAFF040EDF6E0FC0D9FF10C00E
:10138800DAFF000EDB8EF7EF09F03150D8A4CFEF6B
:1013980009F0D1EF09F0DFEF09F00FC0D9FF10C055
:1013A800DAFF480EDF6E0FC0D9FF10C0DAFF000E5B
:1013B800DB8EF7EF09F00FC0D9FF10C0DAFF080E77
:1013C800DF6E0FC0D9FF10C0DAFF000EDB8EF7EF1B
:1013D80009F004AEF2EF09F0F4EF09F0F5EF09F0C7
:1013E800049E000E2A6E1200000E0401286F000EE3
:1013F800296F50EF0AF00C8E2904D8A406EF0AF0E2
:1014080008EF0AF06AEF0AF028836AEF0AF00C8EF8
:101418006AEF0AF00C8E24BF14EF0AF016EF0AF0F8
:1014280027EF0AF024510F0B306E3050020D130EC7
:10143800F324D96E000EF420DA6EDECF32F0DDCF61
:1014480033F036EF0AF024510F0B306E3050020D96
:101458000F0EF324D96E000EF420DA6EDECF32F0D0
:10146800DDCF33F032C0D9FF33C0DAFFDFAE3FEF54
:101478000AF041EF0AF06AEF0AF032C0D9FF33C030
:10148800DAFFDFA44AEF0AF04CEF0AF06AEF0AF03D
:10149800010E286F6AEF0AF020511F0B306E316A77
:1014A8003150000AD8B45BEF0AF06AEF0AF0305006
:1014B800000AD8B4FFEF09F0010AD8B40BEF0AF01C
:1014C800030AD8B40EEF0AF06AEF0AF00CAE6FEF19
:1014D8000AF071EF0AF078EF0AF0280E096E040E90
:1014E8000A6E0C80020E0D6E12002350D8A47FEFF6
:1014F8000AF081EF0AF0F0EF0AF0010E236E225095
:10150800D8A489EF0AF08BEF0AF0F0EF0AF0010E89
:10151800226E020E2A18D8A494EF0AF096EF0AF069
:10152800ACEF0AF020EE01F00F50D9261050DA2265
:10153800000EDF6E0FC0D9FF10C0DAFF480EDF6E55
:101548000FC0D9FF10C0DAFF000EDB8EF0EF0AF0F3
:101558002A04D8A4B2EF0AF0B4EF0AF0F0EF0AF0C8
:10156800000E266E20EE01F01D50D9261E50DA22FC
:10157800080EDF6E20EE02F01D50D9261E50DA222A
:10158800200EDE6E040EDD6E1DC0D9FF1EC0DAFF10
:10159800040EDF6E1DC0D9FF1EC0DAFF000EDB8E01
:1015A800010E266E20EE01F01B50D9261C50DA22BF
:1015B800080EDF6E20EE02F01B50D9261C50DA22EE
:1015C800200EDE6E040EDD6E1BC0D9FF1CC0DAFFD4
:1015D800800EDF6EF0EF0AF012000C8E6B0E306E8C
:1015E8000F0E316E000E336E000E326E000E356E29
:1015F800010E346E97EC04F0000E306E040E316E5E
:10160800000E336E000E326E000E356E200E346EF4
:1016180097EC04F0608C000E3C6E190E3C24D96ED9
:10162800DA6A000EDA22000EDF6E170E3C24D96E3D
:10163800DA6A000EDA22000EDF6E3C2A010E3C64E4
:1016480028EF0BF02AEF0BF011EF0BF02E0E306E97
:10165800000E316E000E336E000E326E000E356EC7
:10166800010E346E97EC04F0609C080E0F6E040EA9
:10167800106E000E1D6E040E1E6E1DC01BF01EC0E7
:101688001CF022C42FF02F50D8A44DEF0BF04FEFD1
:101698000BF053EF0BF0100E2C6E63EF0BF0000EF7
:1016A800336E010E326E2F0E346E000E356E000E44
:1016B800376E010E366EC1EC0CF0200E2C6E120047
:1016C8008C808C928C948C96000E0001616FC80EF1
:1016D800606F93EC0DF08C908C828C948C96000E3D
:1016E8000001616FC80E606F93EC0DF08C908C92C6
:1016F8008C848C96000E0001616FC80E606F93ECAD
:101708000DF08C908C928C948C86000E0001616F89
:10171800C80E606F93EC0DF08C908C928C948C8634
:10172800000E0001616FC80E606F93EC0DF08C9095
:101738008C928C848C96000E0001616FC80E606FCD
:1017480093EC0DF08C908C928C848C96000E00019A
:10175800616FC80E606F93EC0DF08C908C828C9446
:101768008C96000E0001616FC80E606F93EC0DF04F
:101778008C808C928C948C96000E0001616FC80E40
:10178800606F93EC0DF012002D0E256E2DC043F006
:10179800FD0E4316D8A4D3EF0BF0D5EF0BF017EFDF
:1017A8000CF02DC043F0D89043323F0E43164350FF
:1017B800040D000EF3241D6E040EF4201E6E1DC0D1
:1017C8001BF01EC01CF0040E1B181B6E1C501C6E58
:1017D8001DC0D9FF1EC0DAFFDF30E8320F0B0D0A3B
:1017E800D8A4F9EF0BF0FBEF0BF013EF0CF0200E81
:1017F800306E040E316E20EE02F01D50D9261E50B8
:10180800DA22DECF32F0DDCF33F0000E356E080E6F
:10181800346E6BEC0DF07AEC0CF023EF0CF001EC6D
:101828000DF023EF0CF02D50FD0B040AD8A41FEF88
:101838000CF021EF0CF023EF0CF076EC09F012001D
:10184800000E216E000E206E020E2A18D8A42FEF6B
:101858000CF031EF0CF051EF0CF020EE01F01B50C2
:10186800D9261C50DA22080EDF6E20EE02F01B503B
:10187800D9261C50DA22280EDE6E040EDD6E1BC03F
:10188800D9FF1CC0DAFF480EDF6E1BC0D9FF1CC091
:10189800DAFF000EDB8E79EF0CF00D500401265DA7
:1018A8000E502759D8B05BEF0CF05DEF0CF061EFEC
:1018B8000CF026C40DF027C40EF06CEC08F020EEF6
:1018C80002F00F50D9261050DA22280EDE6E040ED0
:1018D800DD6E0FC0D9FF10C0DAFF480EDF6E0FC0F3
:1018E800D9FF10C0DAFF000EDB8E1200000E2B6E3F
:1018F800000E246E000E216E000E206E000E266E65
:10190800000E2A6E0FC0D9FF10C0DAFF7F0EDF1657
:10191800040E0F180F6E1050106E0FC0D9FF10C0B4
:10192800DAFF7F0EDF16040E0F180F6E1050106EC0
:101938001BC0D9FF1CC0DAFF7F0EDF16000E0C6E2D
:10194800000E0E6E000E0D6E000E046E000E066E7A
:10195800000E056EDEEC07F0000E336E030E326EDD
:10196800000E346E000E356E000E376E000E366EA9
:10197800C1EC0CF03EEC07F01200C7EF0CF0F4ECF1
:1019880008F000EF0DF032C038F033C039F03950AC
:10199800000AD8B4D6EF0CF07F0AD8B4F9EF0CF0EF
:1019A80000EF0DF03850010AD8B400EF0DF0030A2B
:1019B800D8B400EF0DF0010AD8B4C3EF0CF0060A52
:1019C800D8B400EF0DF0770AD8B400EF0DF0010A93
:1019D800D8B400EF0DF0070AD8B400EF0DF0010AF3
:1019E800D8B400EF0DF000EF0DF03850FF0AD8B46E
:1019F80000EF0DF000EF0DF01200020E2A18D8A427
:101A080008EF0DF00AEF0DF00EEF0DF09DEC06F06B
:101A18003AEF0DF0000E2A6E2650D8A416EF0DF0FE
:101A280018EF0DF038EF0DF020EE01F01B50D9261D
:101A38001C50DA22080EDF6E20EE02F01B50D92669
:101A48001C50DA22200EDE6E040EDD6E1BC0D9FF9C
:101A58001CC0DAFF0C0EDF6E1BC0D9FF1CC0DAFFFA
:101A6800000EDB8E3AEF0DF0000E266E12006AA013
:101A780040EF0DF042EF0DF069EF0DF01DC0D9FFFA
:101A88001EC0DAFF800EDE18D8A44DEF0DF04FEF20
:101A98000DF068EF0DF00FC0D9FF10C0DAFF840E0B
:101AA800DE18D8A45AEF0DF05CEF0DF068EF0DF0DA
:101AB8001DC0D9FF1EC0DAFF0C0EDF6E1DC0D9FF96
:101AC8001EC0DAFF000EDB8E6A90659A120032C0E3
:101AD80038F033C039F030C036F031C037F085EF18
:101AE8000DF038C0D9FF39C0DAFFDF503A6E384AF6
:101AF800392A36C0D9FF37C0DAFF3AC0DFFF364A85
:101B0800372A3406D8A03506342806E13528D8A463
:101B180090EF0DF092EF0DF075EF0DF01200000E42
:101B28000001636F000E626FADEF0DF0000E656F80
:101B3800000E646F644B652B655109E1A50E645D69
:101B4800D8A0A9EF0DF0ABEF0DF09EEF0DF0624BB2
:101B5800632B6251605D63516159D8B0B6EF0DF0E7
:101B6800B8EF0DF09AEF0DF012002C50D8A4BFEF8B
:101B78000DF0C1EF0DF0D9EF0DF0000E606E000E04
:101B8800646E160E626E9F0E666E7B0E646EA58482
:101B9800A384D0EF0DF0608660A6D5EF0DF0D7EFE7
:101BA8000DF0CFEF0DF0010E2C6E1200000E8D6EB1
:101BB800000E8C6E000E896E000E8A6E000E8B6E03
:101BC800070E966E92689368C70E946E95680F011B
:101BD8005E69C40E5D6F3F0E5C6F070E5F6F2F0E60
:101BE8005B6F000E856EF18E1200000E286E000EDF
:101BF800336E740E326E000E346E000E356E000EAB
:101C0800376E000E366EC1EC0CF0609264940EEFE5
:101C18000EF0659465B413EF0EF015EF0EF00DEFAE
:101C28000EF0000E1F6E1200010E00016D27000E4F
:101C38006E236F2370232850D8A425EF0EF027EFCA
:101C48000EF031EF0EF01F2A1F50D8A42EEF0EF021
:101C580030EF0EF031EF0EF01F68120064846598C3
:101C68006082010E286E000E1F6E000E336E750E18
:101C7800326E000E346E000E356E000E376E000E9A
:101C8800366EC1EC0CF012000001726B716B706B58
:101C98006F6B6E6B6D6B00EE01F02F0EEE6AE8064F
:101CA800FDE151905192000EF86E00015CEF0EF0CC
:101CB80069EC0EF0F28E959095929594959664EC59
:101CC8000BF063EF0EF04EEF00F07DEC0EF0DAEC67
:101CD8000DF074EC0EF052EC05F0B9EC0DF01200BA
:101CE800100ED36E000ED26E000E9B6E000EB56EF7
:061CF8001200D09E120054
:107EAA0000FB7F417FBD7F9D7F8E000000000105A2
:107EBA000001008400000001000000280044006561
:107ECA0000760069006300650049006E0074006571
:107EDA0000720066006100630065004700550049B2
:107EEA0000440000004E0000007B003500380064AA
:107EFA0000300037003200310030002D00320037E8
:107F0A0000630031002D0031003100640064002D4F
:107F1A000062006400300062002D0030003800303A
:107F2A000030003200300030006300390061003652
:107F3A000036007D00000034034D006900630072C2
:107F4A00006F00630068006900700020005400653B
:107F5A0000630068006E006F006C006F00670079B4
:107F6A0000200049006E0063002E00280000000077
:107F7A000104000100000000000000000157494E02
:107F8A0055534200000000000000000000000000FD
:107F9A0000000009022000010100C03209040000AB
:107FAA0002FFFFFF000705010240000107058102E9
:107FBA004000011A03500072006F006400750063EC
:107FCA0000740020004E0061006D00650012034D30
:107FDA0000530046005400310030003000EE001219
:107FEA0001000200000008D8040A00000101020092
:067FFA000104030904006C
:020000040020DA
:08000000FFFFFFFFFFFFFFFF00
:020000040030CA
:0E00000020225F3CFFD385FF0FC00FE00F40B2
:00000001FF
