:0400000082EF3FF05C
:107F04000001AAEF3FF0000E046E000E036E9EEF18
:107F14003FF0000E066E000E056E054A062A065056
:107F240009E1A50E055CD8A09AEF3FF09CEF3FF065
:107F34008FEF3FF0034A042A0350015C04500258B7
:107F4400D8B0A7EF3FF0A9EF3FF08BEF3FF012005E
:107F5400720ED36E95909592959495968CB0B5EFDC
:107F64003FF0B8EF3FF0010EB9EF3FF0000EFF0A0B
:107F7400076E8C500718FE0B07188C6E8CB2C5EF79
:107F84003FF0C8EF3FF0010EC9EF3FF0000EFF0ACB
:107F9400076E07468C500718FD0B07188C6E8CB4BF
:107FA400D6EF3FF0D9EF3FF0010EDAEF3FF0000ECD
:107FB400FF0A076E074607468C500718FB0B071885
:107FC4008C6E8CB6E8EF3FF0EBEF3FF0010EECEF78
:107FD4003FF0000EFF0A076E0746074607468C501F
:107FE4000718F70B07188C6E030E026EE80E016E6D
:0C7FF40085EC3FF0B0EF3FF000EF00F034
:020000040020DA
:08000000FFFFFFFFFFFFFFFF00
:020000040030CA
:0E00000000091F1EFF0381FF0FC00FE00F401D
:00000001FF
